:100000000000042079420000A1420000AD1600006B
:10001000A5420000A7420000A94200000000000025
:10002000000000000000000000000000AB420000E3
:10003000AD42000000000000AF420000B1420000ED
:10004000092C0000B342000019310000B534000053
:10005000E1330000B34200007D2F000019320000A0
:100060008534000095340000B3420000B342000024
:10007000B3420000B3420000B3420000B3420000AC
:10008000B34200000D120000B3420000B342000072
:10009000A9120000B34200002D3E0000B342000050
:1000A000B3420000B3420000B34200009D0D0000C7
:1000B000D1310000B3420000000000000000000049
:1000C000B3420000E1310000F1310000B342000012
:1000D000B3420000B3420000B3420000B34200004C
:1000E000B3420000B3420000B34200000000000031
:1000F00000000000B342000000000000B342000016
:1001000000000000000000000000000000000000EF
:1001100000000000000000000000000000000000DF
:1001200000000000000000000000000000000000CF
:1001300000000000000000000000000000000000BF
:1001400000000000000000000000000000000000AF
:10015000000000000000000000000000000000009F
:10016000000000000000000000000000000000008F
:10017000000000000000000000000000000000007F
:10018000000000000000000000000000000000006F
:10019000000000000000000000000000000000005F
:1001A000000000000000000000000000000000004F
:1001B000000000000000000000000000000000003F
:1001C000000000000000000000000000000000002F
:1001D000000000000000000000000000000000001F
:1001E000000000000000000000000000000000000F
:1001F00000000000000000000000000000000000FF
:10020000044B05481B1A062B02D9044B03B11847AF
:10021000704700BFC3090020C00900200000000093
:1002200005490648091A891001EBD171491002D01D
:10023000034B03B118477047C0090020C0090020D4
:100240000000000010B5064C237843B9FFF7D8FF33
:10025000044B13B10448AFF300800123237010BD99
:10026000C009002000000000A834030008B5084BB6
:100270001BB108480849AFF300800848036813B968
:10028000BDE80840CCE7064B002BF9D09847F7E7CC
:1002900000000000A8340300C4090020BC090020AD
:1002A00000000000134B002B08BF114B9D46A3F527
:1002B000803A00218B460F461148124A121A1EF04E
:1002C00027FB0D4B002B00D098470C4B002B00D088
:1002D00098470020002104000D000B481CF08EFE02
:1002E0001DF034FD2000290000F0C2FB1CF0FEFED2
:1002F00000000800000004200000000000000000D2
:10030000C00900205037002045D4010010B5044634
:1003100004290B46216001DD1CF064FE1146043007
:100320009A001EF0F7F9204610BD08B50368042BAB
:1003300001DD1CF057FE08BD0368042BC7BF4368EE
:1003400053F8210000EB8100406870472DE9F04F21
:100350002DED028B9FB09B464389089383890993B7
:10036000C3890A93038A0B9343880C9383880D9364
:10037000438A0693BDF9183090ED0C8AD0ED0D8AB2
:100380001C920C46084600210E93FFF7D5FF012171
:1003900018902046FFF7D0FF02210F902046FFF76C
:1003A000CBFF032110902046FFF7C6FF01211190DB
:1003B0005846FFF7C1FF022112905846FFF7BCFFD5
:1003C0002D9E139001213046FFF7B6FF02211490B5
:1003D0003046FFF7B1FF4FF0000A1590189B9A4581
:1003E00080F2C080BDF924301693BDF934305B42F1
:1003F00004934FF00008149B984580F2B080BDF93B
:1004000020301993BDF930305B4205934FF000095D
:10041000159B994580F29C80BDF9183017930021F7
:100420000191019B119A934280F28B802C9B03EBEC
:1004300081030393002302930E9B029A9A427ADA75
:10044000029B049DDFED4A7A0B440793BDF92C30E3
:100450001A934FF0000C129B9C453EDABDF92830F0
:1004600005981B934FF0000E139B9E4530DA002831
:1004700029DB109B984226DA002D24DB0F9B9D423E
:1004800021DAA368E268019F03FB0A5302FB03031E
:10049000226902FB03721C9BDBF8107003EB8203E2
:1004A000DBF80C201D933B46079F02FB0CE203FB8D
:1004B00002722A9F1D9B07EB8202D3ED006A92ED28
:1004C000007AE6EE877A1B9B0EF1010E1844CBE70B
:1004D0001A9B0CF1010C1D44BDE72C9B1BB1039B27
:1004E00093ED007A01E09FED227AB368F2680798F5
:1004F00003FB0A8302FB0393326977EE877A02FBE0
:1005000003022E9BF4EEC87A03EB8202029BF1EE0B
:1005100010FA48BFF0EE487A0133F4EE678A02938E
:10052000039BF1EE10FA48BFF0EE687A0433C2ED97
:10053000007A039380E7019B01330193179B1944D1
:100540006FE7059B199A134409F1010905935FE7C9
:10055000049B169A134408F1010804934BE70AF12F
:10056000010A3BE71FB0BDEC028BBDE8F08F00BF76
:100570000000000010B50446006808B103F09AFEC0
:10058000204610BD2DE9F34102AB03E90600019DB1
:10059000DDF800800023AD00044603604360836003
:1005A000AE1045B1B6F1804F01D310F0BDFD284625
:1005B00003F082FE00E0304647192060A7604EB18C
:1005C00041462A461EF040F904E02046FFF7D2FFDC
:1005D00003F0F4FE2046676002B0BDE8F081000041
:1005E0002DE9F04FC5B007464E9C25920E461D469C
:1005F0004FF4106004FB04F3584304211CF02EFD5B
:1006000033680E90DB683F933B6840944194DB680D
:1006100042933FAB26930423279326AB93E806002F
:1006200028A83AABFFF7AEFF3A687968891A2BA879
:100630008910FFF76BFE32687168891A30A889103B
:10064000FFF764FE289A2999891A35A88910FFF7BF
:100650005DFE0226013C94FBF6F4A3B20024214681
:100660002BA811933A943F94FFF766FE0321149050
:100670002BA8FFF761FE2146159035A8FFF75CFE19
:10068000012116902BA8FFF757FE314617902BA893
:10069000FFF752FE0121189035A8FFF74DFE3146B5
:1006A000199035A8FFF748FE01211A9030A8FFF7EE
:1006B00043FE31461B9030A8FFF73EFE3399329B34
:1006C000349A0B954B43B3405343514324932D9B92
:1006D0001D9301FA06F3BDF93C511F932E9B019324
:1006E0001C906B432F98129302FA06F3239300FA9F
:1006F00006F303936B4338992293379B399A4B4304
:10070000B34053431393019B584300FA06F35143FC
:10071000209301FA06F31E9302FA06F3219306943E
:10072000069B149A934280F2AF80BDF944300D933A
:100730005B4210930D9B019A1099E31A534309935E
:100740000B9B0C9300230593059B1B9A934280F20D
:1007500091800D9A099B25989B1A039A03FB02032B
:1007600008930C9B0A93109800230493049B1C9AF3
:10077000934272DA0E9B02930A9B0F930023079316
:10078000079B169A93425BDADFED527ADDF808E0B8
:10079000089F0B46B0EE677A199E5A1AB24231DAB8
:1007A0000246F046BC461A9EC0EB0209B14523DA68
:1007B000C346E2464FF00009159EB14516DA002AFD
:1007C0000DDB189EB2420ADA002B08DB179EB342FB
:1007D000BEBF9AED006ADBED006AE6EE267A09F10B
:1007E00001090AF1040A0BF1040BE5E7039EB44486
:1007F000219E0132B044D6E7209A17441E9A013355
:100800009644C9E737EE877ADFED337AB4EEE77ABC
:10081000F1EE10FA08D4DFED317AB4EEE77AF1EEBA
:1008200010FAD8BFF0EE477A0F9B029AE3EC017AF8
:100830000F93079B01330793139B1A4402929FE780
:10084000049B239A013304930A9B13440A93229A2C
:10085000089B13440893284488E7059B1F9A01339B
:1008600005930C9B13440C93129A099B1344099310
:10087000294469E7069B249A013306930B9B134492
:100880000B931D9B1C444BE73FA8FFF74EFD3AA876
:10089000FFF74BFD0E981DF0B1FB35A8FFF745FDA6
:1008A00030A8FFF742FD2BA8FFF73FFD28A8FFF770
:1008B00061FE45B0BDE8F08F30A8FFF736FDFFE7D9
:1008C0002BA8FFF732FDFFE728A8FFF753FE03F040
:1008D00075FD00BF0000000000008000FFFF7F7F6B
:1008E0002DE9F04FAFB091460A68389C0546D068B4
:1008F0008B469A4604FB04F3584304211CF0AEFBDC
:10090000DBF80030DB6820932B6821942294DB68AD
:1009100023930DF1800804230893CDF81C8007ABC6
:100920001BAE93E806000746334609A8FFF72AFEE8
:100930002A686968891A0CA88910FFF7E7FCDBF8B8
:100940000020DBF8041011AD891A28468910FFF742
:10095000DDFC099A0A99891A16A88910FFF7D6FCB6
:1009600001238DF88030ADF88E30ADF89030ADF8C1
:1009700092304FF400032C93204B2D93022200233E
:10098000013C94FBF2F4BDF8E420ADF88A200CA9F8
:10099000A4B2ADF88C201B934A460293404616AB96
:1009A000009701960395CDF810A0ADF88240ADF800
:1009B0008440FFF7CBFC3046FFF7B7FC38461DF00C
:1009C0001DFB16A8FFF7B1FC2846FFF7AEFC0CA8EC
:1009D000FFF7ABFC09A8FFF7CDFD2FB0BDE8F08F06
:1009E0002846FFF7A2FCFFE70CA8FFF79EFCFFE7F5
:1009F00009A8FFF7BFFD03F0E1FC00BFFFFF7F7F09
:100A000010B50446006808B103F054FC204610BD40
:100A10002DE9F34102AB03E90600019DDDF80080FA
:100A20000023AD000446036043608360AE1045B10F
:100A3000B6F1804F01D310F077FB284603F03CFC61
:100A400000E0304647192060A7604EB141462A4673
:100A50001DF0FAFE04E02046FFF7D2FF03F0AEFCE3
:100A60002046676002B0BDE8F08100000000000091
:100A70002DE9F04F0020C1B04FF4004101F0D0FB50
:100A800018B1D021B64A00F06EFBB64C01F0F2FA74
:100A900094E803000FAB83E80300083493E80600F2
:100AA00021A83CABFFF7B4FF94E8030011AB83E847
:100AB000030024A893E806003CABFFF7A9FF04F16C
:100AC000080292E8030013AB83E8030027A893E829
:100AD00006003CABFFF79CFF04F1100292E8030014
:100AE00015AB83E803002AA893E806003CABFFF7A8
:100AF0008FFF04F1180292E8030017AB83E80300AC
:100B00002DA893E806003CABFFF782FF96481DF046
:100B100051FF4FF0080800274446219BDB590493FE
:100B2000249BDB59039304FB04F308FB03F004212B
:100B300005931CF093FA01233C933CAB19930423D7
:100B40001A9319AB069093E8060030A839AB3D9490
:100B50003E94CDF8FC80FFF715FD049B94FBF3F564
:100B600005FB05F30793079A039B042103FB02F09F
:100B70001CF074FA01233C93039B3F933CAB1B9303
:100B800004231C931BAB089093E8060033A839ABF1
:100B90003D953E95FFF7F6FC00F010F94FF0000987
:100BA0002A9B53F809300993279B53F80960059B4A
:100BB00006FB08F606FB03F004211CF04FFA0123A4
:100BC0003C933CAB1D9304231E931DAB834693E8DB
:100BD000060036A839AB3D943E943F96FFF7D2FC11
:100BE000079B042106FB03F01CF038FA01233C9319
:100BF0003CAB1F93042320931FAB824693E806006F
:100C000039A80BAB3D953E953F96FFF7BBFC00F036
:100C1000CDF80C900A2601230093019330A836A941
:100C2000069A5B46FFF7DCFC099B0093049B01934B
:100C300036A839A95A465346FFF752FE01230093BE
:100C4000019339A833A95246089BFFF7C9FC013E1E
:100C5000E1D100F0ABF80D900D9B0C9A58469B1A11
:100C60000E931DF0CBF950461DF0C8F90E982BF0ED
:100C7000EDFD37A3D3E900232BF088FF36A3D3E99A
:100C800000232BF059FE02460B4638481DF092FE19
:100C900039A8FFF76FFC09F1040936A8FFF76AFCD1
:100CA000B9F1200F7FF47CAF31481DF083FE069828
:100CB0001DF0A4F908981DF0A1F933A8FFF75AFC1C
:100CC000043730A8FFF756FC582FDDF80C8001D010
:100CD0002C4622E727481DF06DFE2DA8FFF790FE59
:100CE0002AA8FFF78DFE27A8FFF78AFE24A8FFF7A2
:100CF00087FE21A8FFF784FE002041B0BDE8F08FF9
:100D000039A8FFF737FCFFE736A8FFF733FCFFE70A
:100D100033A8FFF72FFCFFE730A8FFF72BFCFFE716
:100D20002DA8FFF76DFEFFE72AA8FFF769FEFFE792
:100D300027A8FFF765FEFFE724A8FFF761FEFFE79E
:100D400021A8FFF75DFE03F039FB00BFAFF3008081
:100D50000000000080842E410000000000C04240DE
:100D600092E5020058E502009AE50200AAE50200B9
:100D70008EF20200AEE5020010B5054C204604F0EC
:100D8000D9FA20460349044ABDE8104003F0D0BE1A
:100D9000DC0900205153000000000020024B00221B
:100DA000C3F84021704700BF00B00140024B012250
:100DB0005A64D3F84405704700B00140054B032244
:100DC000C3F808250422C3F810250122DA601A604E
:100DD000704700BF00B0014010B50446044B4FF40B
:100DE0007A4043F001039847013CF7D110BD00BFA2
:100DF00090E702007FB505460E46144672B601F034
:100E000045FC01F067FA0028FBD13E481DF0D2FDF9
:100E100041F201039D4212D003D8012D21D13A485D
:100E20000EE044F201039D420DD044F202039D42C4
:100E300017D16168228835481DF0BCFD15E03448A3
:100E40001DF0B8FD11E0A568284601F087FE236873
:100E50008DE848000246294663682E481DF0AAFD29
:100E600003E02D4831461DF0A5FD01F095FF08B9BE
:100E700001F05AFF0023ADF80C308DF80E3003A9B5
:100E8000012319208DF80D3001F090FF03A91820DF
:100E900001F08CFF172003A901F088FF192002F050
:100EA0003DF8182002F03AF8172002F037F84FF416
:100EB000FA70FFF791FF192002F000F8182001F0F6
:100EC000FDFF172001F0FAFF3220FFF785FF192000
:100ED00002F024F8182002F021F8172002F01EF882
:100EE0004FF4FA70FFF778FF192001F0E7FF1820A0
:100EF00001F0E4FF172001F0E1FFFA20FFF76CFF9B
:100F0000CCE700BFCCE60200E5E6020024E70200E1
:100F100002E702003FE7020069E7020007B501F0BF
:100F20003BFF08B901F000FF0023ADF804308DF855
:100F3000063001A9012319208DF8053001F036FF94
:100F400001A9182001F032FF172001A901F02EFF9E
:100F5000192001F0E3FF182001F0E0FF172001F055
:100F6000DDFF4FF4FA70FFF737FF192001F0A6FFFD
:100F7000182001F0A3FF172001F0A0FF3220FFF797
:100F80002BFF192001F0CAFF182001F0C7FF17201E
:100F900001F0C4FF4FF4FA70FFF71EFF192001F0B3
:100FA0008DFF182001F08AFF172001F087FFFA203B
:100FB000FFF712FFCCE70269C3689A429DBF8068C1
:100FC000801800F1FF3002F1FF30C01A70472DE9A0
:100FD000F041C76886680446F61B4068964288461A
:100FE0001546384403D91DF095FB3D4409E03246CF
:100FF000AD1B1DF08FFB606808EB06012A461DF053
:1010000089FBE560BDE8F0812DE9F843C568064637
:10101000894617464FF000083369B4687068AB42E0
:1010200098BF1B19641BBC4203F1FF3328BF3C4629
:101030005B1B9C4228BF1C462844494622461DF0A3
:1010400069FBB36825449D4208BF00253F1BA044AF
:10105000A144F560E0D14046BDE8F88310B5114CDD
:10106000114AA261022323616361104BE361A26410
:101070004FF400730E4A2362E26400231022A3623D
:101080006362E362A3656365E36522650949E01D68
:101090001EF048F8204608491EF044F82023A371AA
:1010A00010BD00BFC436002096E702000C0C0020E3
:1010B000FC0B00209FE70200A3E70200F8B5144FE5
:1010C000182300FB033503FB00700E46C36A012B97
:1010D00014463D440DD006D3022B16D12846BDE858
:1010E000F840FFF791BF2846FFF765FFA0420CD3F9
:1010F00005E02846FFF75FFF844228BF04462846E4
:1011000031462246FFF763FF00E000242046F8BD89
:10111000C436002073B50D4B1B7806460D461446A9
:101120000BB9FFF79BFF02A8002300F8013D00F078
:1011300065FA224629463046FFF7C0FF04469DF86F
:10114000070000F08BFA204602B070BDC4360020C4
:10115000FFF784BF10B511461C461A460020FFF762
:10116000D9FF204610BD00B583B0029000910192D6
:1011700044F2010071466A46FFF73CFE03B000BD31
:10118000094A537891780133DBB2994208BF0023B2
:10119000117899421FBF03705378182000FB032079
:1011A00014BF043000207047140E002073B50546AC
:1011B00002A8002400F8014D0E4600F01FFA0DF1C0
:1011C0000600FFF7DDFF30B106700A4B9DF80620E0
:1011D00045605A7000E004249DF8070000F03EFAD4
:1011E00024B9054B4FF48012C3F80021204602B009
:1011F00070BD00BF140E002000E100E0024B4FF470
:101200003C6043F001031847B0E7020070B51F4A85
:101210001F4B0021C2F84011C2F84411C2F8481116
:10122000C2F84C11C2F80011C2F804111B6863B374
:101230001848D2F804250468141B24F07F440D4696
:101240001A6894420CD3A41A15441A7CDE6922B1A0
:1012500000221A7498695A6990470EB13346EFE735
:101260000D4B0E4A197813788B4205D10133DBB24E
:10127000022B08BF002313701278094B43F8225049
:10128000084B4FF48012C3F8002170BD00100140DC
:10129000100E00200C0E0020210F0020200F002037
:1012A000240F002000E100E02DE9F74F964A97490E
:1012B00013780978964F974D3C68994231D00133A5
:1012C000DBB2022B08BF002313701278924B53F845
:1012D00022100B1923F07F433B6000262B68304619
:1012E000DBB11A68914203D2521A2B601A6015E0E2
:1012F000D3F80CE0D3F81CC0891A104400221A60FD
:10130000BEF1000F07D0021922F07F42DE615A6061
:10131000C3F808E01E466346E2E72B604FF0010881
:1013200001E00026B0462B6801934FF0000A56B149
:101330003446F6692FE0D5F800B05B46D946002B5D
:1013400062D10023237475494B780A7893420B4687
:1013500066D08C78501CC0B28442087008BF0E70F2
:10136000182101FB02331A799C68022AE3D0032A70
:1013700048D0012AE7D1217C0029E4D1DA686260F3
:101380001A69A2605A69E26010339B68A361644BDA
:101390001B7803B1616060683A68831A23F07F416B
:1013A000604B9942A36801D80B4406E0121A22F060
:1013B0007F4293428CBF9B1A00232968236001223D
:1013C000002322746360A360E361524A31B1206854
:1013D0000B68984204D81B1A0B60E1611460A6E701
:1013E0000B461A68904205D9801ADA6919462AB163
:1013F0001346F6E7121A1A601A460B462060E2619D
:10140000DC6194E72B6804E0A34260D09946DB6975
:1014100095E71BB100221A74DB69FAE72B6092E7AB
:10142000BAF1000F06D12B68019A934202D1B8F1AC
:10143000000F46D02B68002B43D03B4D3C68D5F8BD
:1014400004853A4FD3F800A03B78C4EB080626F099
:101450007F4603369BB9364A4FF480334FF4003150
:101460004FF00109C5F84433C5F80433C2F88011C0
:101470001160C5F80090FFF7C1FE87F8009056454F
:101480002CBFA31904EB0A0323F07F44C5F84045A1
:10149000D5F80435244AC8EB030323F07F43C8EB97
:1014A0000404033324F07F44A3420AD9D2F804355C
:1014B000C2F84035FFF7A2FE1D4B4FF40032C3F8CF
:1014C0000021174B00221A7003B0BDE8F08FA14530
:1014D0000BD1DBF81C302B603BB9134901228A6029
:1014E0003B600F4B1A70FFF789FEE2692168C9F86B
:1014F0001C2012B113680B4413602B689B4518BF66
:101500004FF0010A1DE700BF210F0020200F00202F
:101510000C0E0020100E0020240F0020140E0020BE
:10152000220F0020FEFF7F00001001402C0F002042
:1015300000E100E02DE9F7431E4FBB7805460E465B
:1015400090469BB390B304292ED9436973B3437C6F
:1015500002A80024012B00F8014D0CBF8946A146CA
:1015600000F04CF80DF10600FFF70AFE78B10123F8
:101570000370114B4560D3F8043583609DF8063045
:10158000C660C0F81090C0F814807B7000E004249E
:101590009DF8070000F062F824B9084B4FF4801260
:1015A000C3F80021204602E0072000E0082003B035
:1015B000BDE8F083140E00200010014000E100E0BF
:1015C000064A92783AB130B1426922B100220274DF
:1015D0000221FFF7EBBD0820704700BF140E00206A
:1015E000EFF30583C3F3080333B9EFF3148000F07E
:1015F000010080F0010070470120704770B504467B
:10160000FFF7EEFF012803D04320104902F02EFD22
:10161000EFF3108572B60E4A9068012390B993607B
:101620000C4B0D49D3F88060314011600A49C3F872
:101630008010D3F8841051604FF0FF32C3F884203B
:10164000207000E0237005B962B670BDB6E70200F5
:101650003C37002000E100E0FC06FFBD10B5044669
:10166000FFF7BEFF012803D05120094902F0FEFC1C
:10167000084B9A685AB154B9EFF3108272B6064912
:1016800018680860586848609C6002B962B610BD6E
:10169000B6E702003C37002000E100E0024B1B6887
:1016A000002198681DF08ABAD80400201EF0040FAB
:1016B0001CBFEFF309800AE0EFF308800549064AF2
:1016C000884201D8904202D88D464FF00000034B6B
:1016D000184700000000042000E00320E11600008D
:1016E0002DE9F341054600F0D1FF00F0F3FD00289D
:1016F000FBD1354B354C9F6ADFF8FC80EDB1C8EB70
:101700000406F608360446F001063046AA69304958
:1017100000F062FFAB680093EB680193304695E8F8
:101720000C002C4900F079FFEB69009330462A4900
:101730002A696B6900F065FF08E0C8EB0400C00887
:10174000000440F00100254900F042FF1E4BDB6A17
:10175000980708D5C8EB0400C008000440F0010059
:101760001F4900F035FFC8EB0404E408240444F0EA
:10177000010400260123B3403B4207D0194B53F824
:1017800026201AB12046184900F026FF01361A2EED
:10179000F0D1390605D50C4B14495A6B204600F0A0
:1017A0001BFF3A0405D5084B11499A6B204600F0FF
:1017B00013FF104B1B68DB0700D500BE2846FFF760
:1017C000ADFB02B0BDE8F08100ED00E08435030020
:1017D0000BE8020020E8020055E802007DE8020064
:1017E000B0E80200FCED0200F4E80200FFE80200AD
:1017F0001FE90200F0ED00E01C35030000B50246D1
:1018000052E8000F0B4642E8003E9EF0000FF7D171
:101810005DF804FB00B5024652E8003F43EA0100D0
:1018200042E8000E9EF0000FF6D15DF804FB00B513
:10183000024652E8000F00EA010342E8003E9EF033
:10184000000FF6D15DF804FB00B5024652E8003FF8
:1018500003EB010042E8000E9EF0000FF6D15DF8A8
:1018600004FB00B5024652E8003FA3EB010042E84A
:10187000000E9EF0000FF6D15DF804FB0121FFF78A
:10188000C9BF0021FFF7D3BF10B50446002834D0EC
:1018900003681BB9FF201A4902F0E8FB636823B90B
:1018A0004FF48070164902F0E1FBA36823B940F2BF
:1018B0000110134902F0DAFBE36823B94FF4817099
:1018C0000F4902F0D3FB238A23B940F203100C49DD
:1018D00002F0CCFB6268A36821689B1ADBB20A6045
:1018E000013BDBB2FF2B226804D01168481C10605A
:1018F0000B70F5E70020107110BD0E2010BD00BF69
:1019000064EE020037B5054620B94FF492701349D2
:1019100002F0ACFB02A8002400F8014DFFF76EFEB8
:101920002A68696813688B4210D9591E116013F830
:10193000013CEA682C8A04FB03242A68AB6811681E
:101940005B1A1179DBB2994238BF13719DF8070019
:10195000FFF784FE204603B030BD00BF64EE0200F6
:1019600037B50C46054620B940F247100F4902F042
:101970007DFB24B94FF4A4700C4902F077FB02A858
:10198000002300F8013DFFF739FE2A681368591C4F
:101990001160EA68A41A2A8AB4FBF2F41C709DF85C
:1019A0000700FFF75BFE03B030BD00BF64EE02002E
:1019B00038B5084B03F108040546002808BF1C464B
:1019C00023682BB11A6822605B6828469847F7E7BE
:1019D00038BD00BF380F002018B9054B01225A70DE
:1019E00003E0012803D1024A9070FFF7E1BF70477E
:1019F000300F002020B9034B01225A70FFF7D8BFE7
:101A0000704700BF300F002038B50B4C23787BB9EE
:101A10000A486360A3602361E36001F0A9F805460A
:101A200002F0EAF908B901F0B9F80123237000E0E7
:101A30008525284638BD00BF300F0020D919000089
:101A400013B5154C237823B94FF48570134902F070
:101A50000DFBE36823B940F20B10104902F006FBBE
:101A600002A8002300F8013DFFF7C8FDE368013B31
:101A7000E360E36853B902F0BFF918B17920074970
:101A800002F0F4FA01F0A8F80023A3709DF8070013
:101A9000FFF7E4FD02B010BD300F0020B4EE0200ED
:101AA000012813B508D002D303281AD025E0144B1F
:101AB0000122C3F8802020E002A80023114C00F886
:101AC000013DFFF79BFD23780BB9FFF79DFFE3680E
:101AD0009DF807000133E3600123A370FFF7BEFD0B
:101AE0000BE0084B1B7823B940F24520064902F071
:101AF000BDFA01F053F8FFF7A3FF02B010BD00BF1D
:101B000000E100E0300F0020B4EE020010B5044602
:101B100018B93120054902F0A9FAA2682AB163690F
:101B20002069216898470023A36010BD09EF0200D7
:101B30000EB433B5059D044618B94220114902F090
:101B400095FA63691BB943200E4902F08FFA2368A6
:101B50001BB944200B4902F089FA63681BB9452080
:101B6000084902F083FA3DB102AA06AB42F8043DEF
:101B70002046294600F070F802B0BDE8304003B0BE
:101B8000704700BF09EF0200826830B50468551C39
:101B90008560A154826843689A4203D3BDE830400F
:101BA000FFF7B4BF30BD00002DE9F84F0A9C9946FD
:101BB0000B9B1746824688460A460126BA4203D343
:101BC000B2FBF7F20136F9E74E4538BF4E4613F047
:101BD000010B15D10CB9002412E09B0705D5B9F112
:101BE000000F14BF2025302508E0202506E0013C29
:101BF00050462946FFF7C8FF002CECD0A642F6D38A
:101C00000125B9F1010F02D909F1FF3903E0B8FB51
:101C1000F5F3BB4201D37D43F3E70E4AB8FBF5F37E
:101C20005046D15C05FB1388FFF7AEFFB5FBF7F517
:101C3000002DF2D1BBF1000F0AD03CB9BDE8F88FFE
:101C4000013C50462021FFF79FFF0CB1A642F7D37D
:101C5000BDE8F88F9CEF02002DE9F74F0E46904645
:101C6000054620B94FF4A270B04902F0FFF96B6944
:101C700023B94FF4A370AD4902F0F8F92B6823B9EA
:101C800040F24710A94902F0F1F96B6823B94FF40B
:101C9000A470A64902F0EAF9002E00F0448116F87B
:101CA000011B49B92B7B002B00F03D81284603B076
:101CB000BDE8F04FFFF72ABF252912D10027324691
:101CC00016F8013B2D2B06D0302B07D02B2B0FD134
:101CD00047F00407F3E747F00107F0E747F0020792
:101CE000EDE72846FFF750FF3378002BD7D1D9E72F
:101CF00000242A2B164602F1010108D1D8F8003041
:101D00001A1DC8F800201B680E461C440AE0137810
:101D10000A46A3F13001092904D80A2101FB043441
:101D2000303CE6E733782E2B0FD1721C4FF00009C0
:101D3000164612F8011BA1F13003092B07D80A231C
:101D400003FB0919A9F13009F2E74FF000093178D6
:101D500001F0FB03682B02D116F8011FF8E769298F
:101D600038D00DD8582900F0968004D8252940F0A5
:101D7000D8802846D3E0632924D064292AD0D0E033
:101D8000732900F0938018D8702940F0CA80D8F8E1
:101D900000301A1DC8F80020284630211C68FFF7C3
:101DA000F3FE28467821FFF7EFFE00220823019278
:101DB0000093284621461022AEE075295FD078298D
:101DC00069D0AEE0D8F800301A1DC8F800202846C7
:101DD0001978A4E0D8F800301A1DC8F80020D3F80C
:101DE00000A08AEAEA72A2EBEA720123092A04DD62
:101DF0000A21013392FBF1F2F8E74B4538BF4B461D
:101E00009B462CB1BAF1000F01DB7B0700D5013CEA
:101E1000B80702D5B9F1000F0CD0F9070AD40CB9F4
:101E2000002407E0A34505D228462021013CFFF706
:101E3000ABFEF4E7BAF1000F04DACAF1000A284653
:101E40002D2103E07A0703D528462B21FFF79CFEBE
:101E500007F00303022B0DD1B9F1000F0AD10CB921
:101E6000002407E0A34505D228463021013CFFF7B6
:101E70008BFEF4E78DE890002846514608E0D8F83C
:101E800000308DE890001A1DC8F800201968284617
:101E90000A224B4640E0D8F800308DE890001A1D29
:101EA000C8F80020284619681022F2E7D8F8003058
:101EB0001A1DC8F80020D3F80090FB0711D54F4633
:101EC000C9EB070A17F8011B19B12846FFF75CFE9A
:101ED000F6E7544525D928462021013CFFF754FE5A
:101EE000F7E7B9F1000F04D048461EF049F907465C
:101EF00007E04F4605E034B128462021013CFFF7BA
:101F000043FEBC42F7D809F1FF3919F8011F41B16E
:101F10002846FFF739FEF8E7FFF746FE01E0FFF736
:101F200033FE0136E0E603B0BDE8F08F4FEF02006C
:101F30007047704707B5044B0093044A402300F0F4
:101F400031F803B05DF804FB511F0000450F00207D
:101F50002DE9F04188461446E2B10325002708EB3D
:101F6000070122460020FFF7A9F80B4E0744241A68
:101F700060B9337873B1094B4FF47A4043F00103F1
:101F80009847013D02D13570BDE8F08101233370DF
:101F9000002CE4D1BDE8F081440F002050F1020094
:101FA000FFF7D6B8F0B595B01C4608460D46164664
:101FB00000F034FD1A9B099400240D930822234657
:101FC000284605A908960A948DF82C400C9400F038
:101FD0004FFD079B0293BDF81830ADF80C30BDF8EB
:101FE0001A30ADF80E309DF814308DF8114003F022
:101FF0000302012A19D1BDF814400598C4F38314D3
:10200000C3F3C203C0F395268DF8103028460EA9FD
:10201000A200082300F02CFD08AB009330460EA967
:10202000224602AB00F0A4FB1EE0022A1CD1BDF840
:102030001640C3F3C203C4F389148DF81030082787
:10204000082C264628BF08263B4628460EA93246BD
:1020500000F00EFDA41B0EA8314602AA08AB3744BF
:1020600000F0EAFB002CEBD1284600F0DBFC15B0B9
:10207000F0BD000008B5FFF793FF0748042100F00A
:10208000DBFA002803DA4120044901F0EFFF044B9A
:1020900001225A7108BD00BF144C030056F1020022
:1020A0000400002010B5037803F0040404F0FF02DC
:1020B000ACB103F00303012B09D0022B11D14388EB
:1020C0000A68C3F38913023313440B6009E00288E2
:1020D0000868C2F38312023202440A6001E010462B
:1020E00010BD012010BD00002DE9F04387B004466B
:1020F000851C06A80023454F00F8113D884616466A
:10210000FFF77CFA3B68C8F80030BA687B68134474
:102110003A6801339B1A9D4256D901213C48FFF78A
:1021200093FB3C48FFF7AAFB3B48FFF7A7FB786807
:10213000D7F80880029008EA000007EB80000C3016
:1021400002A9FFF7AFFF81460298B9F1000FF2D163
:1021500000EA080307EB8303821C0130DB6803936A
:1021600000EA080007EB800003F00303C168029255
:10217000012B04910BD0022B12D1BDF80E30BDF80B
:102180001290C3F38913033302EB930306E0BDF807
:102190000C30BDF81290C3F383131344029304E090
:1021A0004FF4BF701D4901F061FFDFF8608008F255
:1021B0001440FFF766FB10B1029BC8F80430494693
:1021C0001348FFF741FBA0E700233EB1012262F371
:1021D000010343F0040364F3891306E0022262F36F
:1021E000010343F0040364F39F533A68B9689DF810
:1021F00007000A4007EB8202D3603B681D443D6044
:10220000FFF72CFA012007B0BDE8F083880F00200B
:10221000A4130020A01300209C130020C5F102008D
:102220000B4B0C48FF2210B59A600022C3F818240B
:102230001A605A60C3F81424012283F8202400F0A5
:10224000A3FB044610B9044800F028FC204610BD4A
:10225000880F0020B435030034F2020010B50A4C98
:1022600071B10A4A121BD2080023934206D00849D2
:1022700031F82310814204D00133F6E7002010BD6D
:10228000034654F8330010BD1C350300B435030079
:10229000C0090020094B013903EBC000032909D80C
:1022A000DFE801F00A020406042070470079704755
:1022B0004079704700207047022070471C350300AA
:1022C000034B58681B68C31A58425841704700BFF7
:1022D000880F00202DE9F04786B0FFF7F1FF064692
:1022E000002840F0B580824CC4F81804BFF34F8F2B
:1022F0006068A5680290284004EB80000C3002A9B9
:10230000FFF7D0FE029A18B1D4F81814784BA1B197
:1023100002EA050304EB8303911C0132DB6803939B
:102320002A4004EB820203F00303D268DFF8C09175
:102330000291022B049258D109E019688A4201D314
:102340005960D1E002EA050003EB8000D6E7BDF852
:102350000E306848C3F38917502FB846A8BF4FF016
:10236000500868F38F1308F10801ADF80E3000F043
:1023700024FB0646002874D000F050FB08220023FE
:10238000304603A900F05EFB029B25EA03020132FE
:10239000920090451AD9002A5CD003EA05015FFA41
:1023A00082FA09EB8101CAEB08080C315FFA88F860
:1023B00009F10C0530465246082300F043FB75B185
:1023C0003046294642460AF1080306E01D4009EB63
:1023D000850130460C314246082300F033FB029B56
:1023E000033703EB9703029355E0012B39D1BDF876
:1023F0000C304048C3F38311062928BF062161F33E
:10240000891302318900ADF80C3000F0D6FA064687
:1024100038B300F003FB304603A90822002300F084
:1024200011FB0027BDF80C20C2F38312BB1C97429E
:102430004FEA83032FD202994A1C294004EB810101
:10244000029230460C31042200F0FCFA0137E9E731
:10245000002649E05FFA88FA154609F10C0190461A
:10246000A8E7D4F8104434B1236820469B68984705
:10247000E3681C68F7E72048204B2149181AC00878
:10248000000440F0020000F0A3F8FFF719FF80F00D
:102490000100C6B228E0D4F81834D4F8105443B17F
:1024A000304600F0BFFAF0E7EB685B79B3B9EB6850
:1024B0001D68002DF8D1304600F0B4FA06A800F8E7
:1024C000115DFFF79BF8D4F8183413B9084B029A42
:1024D0005A609DF80700FFF7C1F8D6E72B68284639
:1024E0001B6831469847E2E7304606B0BDE8F08702
:1024F000880F0020B43503001C3503007435030039
:102500001CF202002DE9F74F2C4D80460F469146F4
:10251000184601A901221E46AC68FFF7E5FD002818
:1025200042D0DDF804A000230AF10201B34209D031
:1025300001EA040005EB800059F82320C260013352
:102540000131F3E71E480021FFF758F980F3100B23
:102550001C4A1D4B4FEA18499B1AB9EBD30F04D301
:1025600040F2A310194901F081FD0AF10102224055
:102570000AEA040305EB8202023305EB830349EA0E
:102580000B40D0601A7968F3C5021A719A8866F315
:1025900089129A805A68012167F39F225A6061F379
:1025A00001026FF382021A7195F820341BB1FFF714
:1025B00091FE0028FBD103B0BDE8F08F880F00200A
:1025C000A41300201C350300B4350300C5F102003C
:1025D00000221346FFF796BF07B502AB43F8042D60
:1025E0001A460123FFF78EFF03B05DF804FB07B521
:1025F0008DE80C006A460223FFF784FF03B05DF804
:1026000004FB1FB50293069B0192039301AA0323C7
:10261000FFF778FF05B05DF804FB1FB58DE80C00EF
:10262000069B0293079B03936A460423FFF76AFF06
:1026300005B05DF804FB000030B5134AD2F8104431
:102640000023214629B1C9680D799D4216D0096839
:10265000F8E7C4682371D2F810240B4C22B9C4F8EF
:102660001004C268116007E0D268C16812680A608D
:10267000D4F81024D2681060184630BD01330A2BFC
:10268000DFD14FF0FF3030BD880F002010B5094B6F
:102690000122D3F8104483F820244CB1E3680122CE
:1026A0005A71236820465B689847E3681C68F4E722
:1026B00010BD00BF880F002073B5C38804460D46C7
:1026C00033B1154A00920846144A1549FFF730FA0B
:1026D000217A05291DD0637A53B1A088FFF7DAFD6E
:1026E000104B11490246284653F82220FFF720FAE2
:1026F000227A0E4BA08853F822600021FFF7AEFD2E
:102700000B4903463246284602B0BDE87040FFF749
:102710000FBA02B070BD00BF98F2020090F2020042
:1027200078F2020054F202009DF2020040F2020030
:10273000A0F2020010B5037A052B0C460BD0437AA9
:1027400023B10846074A0849FFF7F2F9204607492E
:10275000FFF7EEF901E0002AF8D12046BDE810406D
:10276000FFF7D4B998F202009DF202008DF2020048
:102770002DE9F04385B01F460C9D002306460C460C
:10278000904695F80C902B7338462946FFF794FF36
:10279000B8F1060F46D8DFE808F004090F161F2A23
:1027A000370028463146FFF7C3F93BE0284631465B
:1027B0002268FFF7BDF935E02846314694E80C0061
:1027C000FFF7B6F92EE0A36800932846314694E857
:1027D0000C00FFF7ADF925E0A3680093E3680193CF
:1027E0002846314694E80C00FFF7A2F91AE0A368E6
:1027F0000093E3680193236902932846314694E8E5
:102800000C00FFF795F90DE0A3680093E3680193CE
:1028100023690293636903932846314694E80C00C8
:10282000FFF786F9384629460022FFF783FF85F82F
:102830000C9005B0BDE8F08308292DE9F8438046E7
:102840000E4617461C463ED8002593F80C901D7383
:1028500010461946FFF730FFB542204605D21B4906
:1028600018F80520FFF764F902E01949FFF760F94D
:102870000135082DF0D120461649FFF759F90025FA
:10288000B54212D218F805207E2A08D8124B1B68D0
:1028900013445B7813F0970F08BF2E2200E02E221E
:1028A00020460E49FFF744F903E020460C49FFF7A4
:1028B0003FF90135082DE3D1384621460122FFF7C3
:1028C00039FF84F80C90BDE8F88300BFAAF202003B
:1028D000B0F20200B4F20200A8000020B6F202003A
:1028E000B2F202002DE9F74F9B469DF8303001937C
:1028F0000F469146054618B9B620224901F0B6FBAD
:10290000EB886A795A43A2F10408C34503D3C42073
:102910001C4901F0ABFBD9F80060B5F806A006EB46
:102920000B0343450BF1040088BFCBEB0806B0FB5B
:10293000FAF4C9F800600AFB140014B12D68013CD8
:10294000FBE7C0EB0A09B14528BFB146B6B1019A11
:1029500028443B19011D0AB1184601E008461946F2
:102960004A46C9EB06061BF0D5FE56454C442D6879
:10297000B1464FF0000028BFD146E7E703B0BDE8FD
:10298000F08F00BF04F30200FEF77EBFF8B5457973
:1029900001460B46681E0022824202D21B680132A9
:1029A000FAE71E680024AC4206D20F683046FEF7F4
:1029B000D7FF01343946F6E7F8BD2DE9F843078A19
:1029C000043F3944CD1C8046FEF79CFFB5FBF7F56C
:1029D00004460026F8B10123EDB206714371C780A9
:1029E000013DC0F800808146AE4214D24046FEF759
:1029F00089FF074648B16379013363710136C9F82D
:102A00000000C0F800808146EEE72046FFF7BEFFD9
:102A10003846BDE8F8832046BDE8F883043001213C
:102A2000FEF712BF10B5012104460430FEF719FF6E
:102A300010F0FF0F04D12046BDE81040FFF7A6BFFD
:102A400010BD000030B585B0144604AA002542F838
:102A5000044D0095FFF746FF039BA34203D0F620E9
:102A6000024901F003FB05B030BD00BF04F30200D2
:102A700030B585B0144604AA012542F8044D0095EE
:102A8000FFF730FF039BA34204D04FF4807002494C
:102A900001F0ECFA05B030BD04F3020082680023B7
:102AA000936082681361826853618268D360826830
:102AB000536082681360704738B50D46044618B9F4
:102AC0005020084901F0D2FA1DB95120054901F002
:102AD000CDFA25602B6863606A68934204BF0023C7
:102AE000636038BDFDF3020010B5044618B96320D9
:102AF0000A4901F0BBFA23681BB96420074901F0B9
:102B0000B5FA616841B1226893680B44636052680A
:102B1000934204BF0023636010BD00BFFDF30200B9
:102B200010B50D49A1F594728A4212D28B1A022473
:102B3000DB1093FBF4F302EBC30452F8333083420F
:102B400005D802D204F10802EEE7606810BD214604
:102B5000EAE7002010BD00BF48F9020008B5FFF702
:102B6000DFFF024B002808BF184608BD48F90200E5
:102B700010B5044618B9A020064901F077FA064BB3
:102B8000187920B901221C601A71587110BD852076
:102B900010BD00BF5BF902001415002008B50B4BF7
:102BA0001B791BB9B9200A4901F060FA094B1A6870
:102BB000D2075FBFE02283F8002301221A604FF0A2
:102BC00080430122C3F8182508BD00BF141500205A
:102BD0005BF9020000E100E008B5084B1B791BB966
:102BE000F320074901F042FA064B01221A604FF028
:102BF0008043D3F81834DB03F9D408BD1415002042
:102C00005BF902000C00004007B5134B1A687AB15B
:102C100000221A601B680093009B4FF08043012242
:102C2000C3F808230D4B587910B95A711B6898479F
:102C30000B4B1A686AB100221A601B680193019B52
:102C40004FF080430222C3F80823044B01201B6885
:102C5000984703B05DF804FB000100401415002004
:102C60000401004000F1804000F5C040002382B024
:102C7000036003680193019B02B0704710B5C4085C
:102C800001230A5D00F00700834013430B5510BD7C
:102C9000054A4FF0FF33072842F8203084BF8018E0
:102CA00080F85830704700BF1C15002010B503682D
:102CB0002F2B044604D94FF4F370064901F0D6F9DE
:102CC00023681F2B83BF03F01F03236002484FF0CC
:102CD000A04010BDAEF902000003005013B502ABD6
:102CE0000C4643F8040D1846FFF7E0FF019B00EB8C
:102CF0008300D0F8003723F44033C0F80037D0F811
:102D0000003743EA0441C0F8001702B010BD0000CC
:102D10004FF0A043D3F810350360024BD3F81035C1
:102D2000436070470003005038B5174C94F86A3080
:102D300043BB04F12F0304F15F02FF2103F8011FDD
:102D40009342FAD10025E8B20135FFF7A1FF0C2D1F
:102D5000F9D1002106220D481BF0DAFD0C4BE022D0
:102D600083F8062340221A604FF4BE70FFF77AFF03
:102D7000084B4FF00042C3F80423012384F86A3063
:102D8000002038BD082038BD1C150020801500200B
:102D900000E100E000600040034B93F86A0000305F
:102DA00018BF0120704700BF1C1500202F287FB5D9
:102DB00004460D4604D94FF498703D4901F056F988
:102DC0003C4E96F86A30012B04D040F2311038495D
:102DD00001F04CF925B94FF49970354901F046F9E5
:102DE000331993F93020013237D1AA788AB30022FF
:102DF00056F822002F4901304FEA820324D10819E6
:102E000003F1804380F83020002003F5C04341F8EF
:102E10002200D3F8100529786A7820F49910120559
:102E2000090420F4F85001F4403102F48012C3F890
:102E300010050A432102D3F8100501F47C510A431E
:102E40000243C3F810250AE00132082AD0D1042039
:102E50002CE0FE2283F8302001E0082026E06D7887
:102E6000012D09D104A840F80C4DFFF71FFF019B6D
:102E70009D40C0F8085509E004A840F8084DFFF748
:102E800015FF029A01239340C0F80C3504A840F8BE
:102E9000044DFFF70BFF039B074903F5E073032283
:102EA00040F823202046FFF7E9FE002004B070BD63
:102EB000F1F902001C150020801500202F2837B5DD
:102EC000054604D94FF4BE70124901F0CFF8124BF9
:102ED0005A191C4692F93020013204D140F27D107B
:102EE0000C4901F0C3F8631993F83030072B04D86C
:102EF0004FF4BF70074901F0B9F802A840F8045D2B
:102F0000FFF7D4FE019A01239340C0F8083503B0BF
:102F100030BD00BFF1F902001C1500202F2837B585
:102F2000054604D94FF4C370124901F09FF8124BC3
:102F30005A191C4692F93020013204D140F2871010
:102F40000C4901F093F8631993F83030072B04D83B
:102F50004FF4C470074901F089F802A840F8045DF5
:102F6000FFF7A4FE019A01239340C0F80C3503B08B
:102F700030BD00BFF1F902001C1500202DE9F0471B
:102F80008AB00024604D029403940126A5F5C04048
:102F900055F8043B012B80B207D15C4BD3F80433C6
:102FA0001E4202D0FFF75EFE3443594B9D424FEA6A
:102FB0004606EBD15C331B68012B08D14FF4BE7081
:102FC000FFF750FE02A844F00044FFF7A1FE14F002
:102FD000FF0F0AD1002C80F2938000230493059305
:102FE0004FF0FF330693079336E001260025264273
:102FF00011D0AB0003F1804303F5C043D3F81005B3
:10300000D3F81015434B53F8253023B1C0F30520F6
:10301000C1F3014198470135082D4FEA4606E6D134
:10302000D8E73C4BDA1992F86040FF2C17D10137F2
:10303000042FF6D1002D63D008A8FFF769FE029B8C
:10304000089A9A42099B44D002920393049A059BE2
:1030500006920793002D53D000252F46E1E7E4B2F6
:1030600004F007024FF0010808FA02F824F0C00645
:103070000AAA02EBD60919F8102C12EA080FD6D0CA
:103080009A19A40992F9302053F822A0BAF1000F3E
:1030900002D1032CCBD101E0032C03D1304604A98B
:1030A000FFF7ECFD0AA840F8246DFFF7FFFD019B38
:1030B00019F8202C03F5E07312EA080F50F82330BA
:1030C000C3F3014302D0022BB1D10AE0032BAED1EE
:1030D00003E003998B4213D0B6E7032C09D10221F8
:1030E00002E0032C05D121463046FFF7F7FD0135FC
:1030F000EDB2BAF1000F9AD030462146D04796E79C
:103100000AB0BDE8F08700BF0061004000600040E9
:10311000206100401C15002010B5064B1A681C46A3
:103120001AB95120044900F0A1FF2368BDE81040FE
:10313000184700BF881500204AFA020000234350B8
:1031400082B043580193019B02B0704770B5D0F82C
:10315000103105460C4653B14FF48871FFF7EEFF6E
:1031600063795A0703D523680BB101209847D5F836
:1031700014315BB128464FF48A71FFF7DFFF6379A2
:103180001B0703D523680BB102209847D5F81C31E3
:103190006BB128464FF48E71FFF7D0FF637903F0CF
:1031A000100303F0FF0013B9236803B19847D5F863
:1031B000043163B128464FF48271FFF7BFFF01234A
:1031C000237123681BB10320BDE87040184770BD10
:1031D00001480249FFF7BABF00C001409015002026
:1031E00001480249FFF7B2BF0010024098150020C5
:1031F00001480249FFF7AABF00200240A0150020A5
:1032000000F1804000F5E0400023036082B00368D5
:103210000193019B02B070477FB54F4B4F4D1B6828
:103220002BB34FF48270FFF7EBFF95F82E1011B11E
:1032300095F82F30DBB16A6802922A89ADF80C202C
:10324000EA68464B00208DF804000AB91A7408E0B9
:103250001C8B5C835A601C81D86011B9404B0122E1
:103260001A602B6801A89847002385F82F3095F83D
:103270002E303A4C63B33B4B1B684BB34FF480701A
:10328000FFF7BEFF94F82D10638B8AB2934209D9E1
:103290009B1A22899BB292B26383D31A626802EBB3
:1032A000430307E00DD1E368012284F82F203BB1EE
:1032B000002262832A4AC2F82C36C2F8301600E097
:1032C00063834FF48270FFF79BFF274B01221A6044
:1032D000264B1B685BB14FF48870FFF791FF00230A
:1032E00004A82B74022300F80C3D2B689847204B50
:1032F0001B6833B14FF48A70FFF782FF00232B74F1
:1033000027E06E692EB3B6FA86F44FF00043E3402F
:10331000A40004F58C7426EA030604F1804303F547
:10332000E0431B68002BEDD02046FFF769FFA4F5B2
:103330008C7401238DF80430E30884F00404C4F392
:1033400080048DF808308DF809402B6801A8984753
:10335000D8E704B070BD00BF04710040A81500207C
:103360000070004000710040047000401071004087
:103370001471004010B503682F2B044604D94FF494
:10338000F370064900F072FE23681F2B83BF03F021
:103390001F03236002484FF0A04010BDAEF90200A9
:1033A0000003005007B502AB43F8040D1846FFF7C1
:1033B000E1FF019A01239340C0F80C3503B05DF89A
:1033C00004FB07B502AB43F8040D1846FFF7D2FF24
:1033D000019A01239340C0F8083503B05DF804FB5F
:1033E00013B54FF04023D3F81831FBB1104B114CFB
:1033F00000221A601B680193019B236823B94FF4D4
:1034000027700D4900F032FEE07FFF2807D0094BFE
:103410009B7F13B1FFF7C6FF01E0FFF7D2FF002348
:1034200063772372054823686168984702B010BD2E
:1034300018410040D815002009FC0200E0150020CA
:10344000F7B506460F4600F5A075002404F15000BC
:103450002B68800080B273B1D6F804234FF4803318
:10346000A340134207D000232B602B680193019BDC
:1034700079683B6898470134042C05F10405E5D1CF
:1034800003B0F0BD01480249FFF7DABF00800040F9
:10349000FC15002001480249FFF7D2BF0090004010
:1034A000081600200023435082B043580193019B2B
:1034B00002B07047F0B5564C236887B023B940F28C
:1034C0004520544900F0D2FD534DD5F824312E4605
:1034D0009BB128464FF49271FFF7E4FFD5F8043111
:1034E0005BB9A368C5F808330223A360A368C5F8D5
:1034F000043301232B626B6188E0474DD6F8043119
:103500002846002B3BD04FF48271FFF7CBFFDFF84A
:1035100000E10EF10C070FCF01AE0FC63B68336020
:1035200094F82E3083B19EF80C30012B0CBFD5F8E7
:103530003C25D5F84C250292022B374B0CBFD3F813
:103540003C35D3F84C35039333484FF4B071FFF753
:10355000A9FF31484FF4AE71FFF7A4FF94F8303063
:1035600023B12B4B93F82E30002B36D02A4B002260
:10357000C3F80022A260294AC3F808232DE04FF4C3
:10358000A471FFF78FFF237BDFF884E08BB90EF186
:103590000C070FCF01AE0FC63B6833609EF830308A
:1035A000DBB9C5F80032CEF808301C4BC5F808333B
:1035B00013E04FF40073C5F8003240F20223CEF856
:1035C000083003F1CE73C5F80833DEF80830C5F8CB
:1035D00004330123AB602B6218E00F4AD2F8C434E5
:1035E000C2F8C4349A0701D5012303E013F00403A1
:1035F00018BF02238DF8003094F8303013B9044A14
:1036000082F82F30236861686846984707B0F0BD9C
:1036100014160020ADFC02000030004002029C01A4
:1036200070B5D0B1B2B116880024B44203D30519E5
:103630006D789D4206D08C420ED2055D01352C443A
:10364000A4B2F2E78C4207D2A31C1380005D0138BC
:1036500080B270BD104670BD002070BD37B51346F6
:1036600002AA002522F8025D0446FFF7D9FF10B137
:10367000BDF80600204403B030BD72DF704773DF31
:10368000704738B504460D46D0F83402B4F8381205
:103690000122FFF7E3FF00B1057004F1540004F5C7
:1036A0000D7104F13C02BDE83840FFF7E6BFF8B504
:1036B000077804460D46002F00F0E88000F24A2605
:1036C000A1703046002107221BF022F9A3790BB923
:1036D000E37913B1A378012B04D0E37963B1A37824
:1036E000022B09D1636B2BB1012284F851220820EF
:1036F000984701E084F85132334604F5147113F809
:10370000012F12B98B42FAD11746013D032D14D86F
:10371000DFE805F002080B0DA3791BB194F8243003
:1037200003B967B9E37903B15FB9237A5BB9637A07
:10373000002B0CBF0023042306E0002304E0012338
:1037400002E0022300E00323626BA3707AB1033B23
:10375000012B0CD8637953B194F852323BB984F8F9
:103760005432012384F853320720904702E00023AB
:1037700084F8533204F13C050021182228461BF03E
:10378000C7F8E36A94F82420581E0121022828BFB4
:103790000B4684F83C1084F8513022B1884277D827
:1037A000A36A84F85230A178002384F850300429A9
:1037B00051D8DFE801F04E0311243900C4F8443237
:1037C00063640223012284F83C30802384F8312092
:1037D0002664A4F848303EE0022384F831300AB170
:1037E000072300E0032384F83C302369A4F8483021
:1037F0000023C4F84432E368266463642BE0636901
:103800006364A369A4F8483012B1062384F83C30FD
:103810006379002B50D094F85232002B4CD194F89D
:103820005432002B48D036E0E3696364236AA4F87D
:10383000483012B1062384F83C306379002B48D01D
:1038400094F85232002B44D194F85432002B40D0DB
:1038500034E084F83130A3782BB9636BA3B194F8CA
:103860003100984710E004F15400D4F844122A467D
:10387000FFF703FF78BB94F8540094F83010FFF77B
:10388000FEFE0028E9D0F8BD0020F8BD0820F8BDF4
:1038900084F8521087E7022384F850302046042130
:1038A000FFF7EFFE0028D6D1052384F8313004F568
:1038B0000D73C4F84432CEE70323F6E7022384F8FD
:1038C000503020460421FFF7DCFE0028C3D1062338
:1038D000EBE70423E9E7F8BD10B50388112B0C468C
:1038E0000AD0262B15D0102B29D1C27B8388012A20
:1038F00025D1A1F8483210BD002381F852328288C8
:10390000B1F848329A421AD10B79C3B9084601215D
:103910000DE0037A013B012B11D88B78052101338F
:1039200093FBF1F101EB8101591A2046C9B2FFF76F
:10393000BEFE20B1A36B13B1BDE81040184710BD07
:1039400070470000034B1A8882420CBF18460020C3
:10395000704700BF64160020024B9B6903B11847F3
:10396000704700BF4816002037B50246487A0E4B14
:1039700068B95C680D7A9B684868002D0CBF2146C9
:103980001946FDF7D7FD68B1FFF7E6FF0AE05B696E
:103990000020087233B101218DF80410ADF8062023
:1039A00001A8984703B030BD4816002030B54C88B8
:1039B00005888388C288A5421BD84088A04218D3B6
:1039C00040F2F31083428C8894BFD81A181A8442AC
:1039D0000FD303F2F3139C420BD84FF6FF708242D1
:1039E000CB888CBF121A921A934234BF0020012058
:1039F00030BD002030BD000070B50388112B044697
:103A000028D002D8102B05D070BD122B4DD0502BD2
:103A100030D070BDC37B8688012B58D14FF6FF7024
:103A2000FFF790FF054608B904203AE0284A0680CF
:103A3000002303721368C5F80A300A3053684360E4
:103A400004F11001FFF7B2FF224B6872DB89002BF3
:103A50003DD136E08088FFF775FF0446002836D058
:103A60004068FDF7ADFD08B1FFF776FF4FF6FF7335
:103A7000238070BD174BC288DB899A4227D1038A05
:103A8000022B24D186883046FFF75CFF0546F0B153
:103A900004F1120000F020F898B96868FDF790FD75
:103AA000A8B1BDE87040FFF757BF86883046FFF7E2
:103AB00049FF054658B10A3004F10801FFF776FFC7
:103AC000687230462946BDE87040FFF74DBF70BDB3
:103AD0007816002048160020007800F0010070479A
:103AE00090DF7047A5DF7047B5DF70477FB50023D3
:103AF000ADF80810ADF80A106A4602A90646ADF8FE
:103B00000C30ADF80E300093ADF80430FFF7E8FF4D
:103B10000546F8B1114B124C1C1BE408FFF71EF8C8
:103B2000240444F001040346324620460D49FEF7C2
:103B30005EFDBDF80020BDF8023002B91BB1204681
:103B40000949FEF754FDBDF804201AB12046074983
:103B5000FEF742FD284604B070BD00BF8C3503005F
:103B60001C350300A2FD0200ECFD02002BFE02004A
:103B700013B5034680880C46002840F0C1801A889F
:103B8000232A00F09C800FD8102A15D0112A40F06B
:103B90009D80F723CB8017230B81FB230B731B2303
:103BA0008872C8724B7391E03A2A33D0552A4DD0AF
:103BB000242A40F08B8071E00A790A73DB7B012BA9
:103BC00003D0022B03D14B8800E00B88E380E1880F
:103BD00023898B4218D20020FFF784FF10B90123FC
:103BE000E37211E0112802D10123A3720CE0FEF769
:103BF000B5FF444B444902464448181AC008000423
:103C000040F00100FEF7E8FC217B637B8B425DD234
:103C1000002059E05A89CB88934228BF1346172BBE
:103C20000A6938BF17230B8162B1C97A51B140F6D6
:103C30007721ADF80010ADF80200ADF80430204651
:103C4000694690470023E372A3723FE0DB88C9888E
:103C5000A072172B38BF17238B4228BF0B46238136
:103C6000FFF742FF60B1FEF779FF264B2849024675
:103C70002648181AC008000440F00100FEF7ACFC0A
:103C8000E27A1ABB23690BB340F67721ADF8022024
:103C90002289ADF80010ADF804200CE01A7A0B6907
:103CA0004A739BB14DF67A210090ADF80400ADF84F
:103CB00000108DF8042020466946984706E0197ADE
:103CC000237B994228BF1946FFF710FFA37ABBB1A7
:103CD0000020E188FFF706FF18B90123A072E37204
:103CE0000EE011280CD0FEF739FF064B06490246BC
:103CF0000648181AC008000440F00100FEF76CFCEA
:103D000002B010BD8C35030081FE02001C3503009B
:103D1000B2FE0200B0DF704766DF704710B50021C9
:103D200004464088FFF7F8FF034610B1112802D17E
:103D30000123237210BD6368BDE81040184728B105
:103D40000378DE2B04D14180002070470E2070479D
:103D500008207047F0B5054685B00C46002948D0CC
:103D6000002846D00B78DE2B43D182884B889A42BC
:103D700004D10B7A13B10846FFF7D0FF2B88112B23
:103D800030D0512B0DD0012B33D12B7AAA88012BA7
:103D90002FD1618891422CD123722046FFF7BEFFBC
:103DA00027E0AE886388B34223D1AF79022F20D1B8
:103DB000AD7B2B1F022B1CD80021684610221AF065
:103DC000A7FD052D14BF4FF4C0730023304669468C
:103DD0008DF80070ADF80430FFF79CFF48B16368C0
:103DE000984706E06388AA889A4204BF4FF6FF739B
:103DF000638005B0F0BD0000014B1878704700BF2C
:103E00008016002007B508496846FEF755FE019B5D
:103E100033B158681A6890476846FEF765FEF6E7C2
:103E200003B05DF804FB00BF44FF0200FFF7EABFE8
:103E300061DF704700B5ADF5017D4FF4FA7303A85B
:103E40000DF10201ADF80230FFF7F2FF70B901A8E1
:103E50000C49FEF731FE029B002BEED003A81A6836
:103E60005968904701A8FEF73FFEF4E7052804D003
:103E700040F23911044AFDF776F90DF5017D5DF840
:103E800004FB00BF50FF02005CFF0200024B1B78E6
:103E90000BB1FFF7CFBF70478116002076DF704768
:103EA0007FDF704786DF70478ADF70478FDF70479C
:103EB000B1DF704733DF704737B503881D2B0446E9
:103EC00000F099800CD8132B55D004D8102B16D0A5
:103ED000112B36D0AAE0142B65D01B2B6FD0A5E098
:103EE000502B3CD005D8212B00F091803B2B6FD07C
:103EF0009CE0522B4BD038D3562B71D096E04F4DCF
:103F000081884F482980FFF71AFF20B14FF49D7137
:103F10004C4AFDF728F9002128880A460B46FFF78E
:103F2000C7FF20B14FF4A171464AFDF71CF946487E
:103F30001AF040FD454B002B78D02046AFF30080AF
:103F400074E03E4B42484FF6FF721A801AF032FD81
:103F5000404B002B6AD02046AFF3008066E03E4B1A
:103F6000002B63D0AFF3008060E03C4B002B5DD0B2
:103F7000AFF300805AE0314B0022188885211346A8
:103F8000FFF78EFF002851D040F281114BE02B4B00
:103F9000002118880A460B46FFF78AFF002845D003
:103FA00040F287113FE0254B002118880A460B4656
:103FB000FFF778FF002839D040F2911133E0037AFF
:103FC000012B33D1FFF776FF80B34FF4CC712AE099
:103FD00080881321FFF762FF40B34FF4D07122E0D5
:103FE00083791BBB154B13211888FFF757FFE8B1E6
:103FF00040F2A71117E01A4B0BB1AFF3008000207D
:104000001849FFF751FF88B140F2C7110BE00023B8
:1040100080888DF8043001A98DF80530FFF746FF40
:1040200020B140F2D111074AFDF79DF80E4B13B1B4
:104030002046AFF3008003B030BD00BF48370020FA
:1040400084160020520203008102030000000000D9
:1040500091020300000000000000000000000000CA
:10406000000000000C0000200000000038B50C46E5
:10407000054604481AF09EFC034829462246FDF7EF
:1040800072F838BDA3020300EFBEADDE4FF08043EF
:104090000022C3F80C21C3F81021C3F838254FF0D3
:1040A000805203F54043D2F80414C3F82015D2F827
:1040B0000814C3F82415D2F80C14C3F82815D2F844
:1040C0001014C3F82C15D2F81414C3F83015D2F814
:1040D0001814C3F83415D2F81C14C3F84015D2F8DC
:1040E0002014C3F84415D2F82414C3F84815D2F8A4
:1040F0002814C3F84C15D2F82C14C3F85015D2F874
:104100003014C3F85415D2F83414C3F86015D2F83B
:104110003814C3F86415D2F83C14C3F86815D2F803
:104120004014C3F86C15D2F84424C3F87025454BED
:104130001A68082A03D1444A1268002A68D01B680A
:10414000082B03D1404B1B68002B65D03D4B1B68EF
:10415000082B03D13C4B1B68002B62D0394B1B68EA
:10416000082B03D1384B1B68002B65D04FF08043E0
:10417000D3F80024D20744BF6FF00102C3F8002433
:10418000324AD2F8883043F47003C2F88830BFF363
:104190004F8FBFF36F8F4FF01023D3F80022002A08
:1041A00003DBD3F80432002B2EDA294B0122C3F8AB
:1041B0000425D3F80024002AFBD04FF0102212214E
:1041C000C2F80012D3F80024002AFBD04FF01023CD
:1041D0001222C3F804221E4BD3F80024002AFAD07E
:1041E0000022C3F80425D3F80024002AFBD0BFF333
:1041F0004F8F1649174BCA6802F4E0621343CB6035
:10420000BFF34F8F00BFFDE7134B144A1A6070478E
:10421000134A1449116092E7134BFB22C3F8182587
:1042200094E71249124A0B68126823F00F0302F058
:104230000F0213430B6091E70E4B4FF400721A60AC
:1042400094E700BF300100103401001000ED00E0E1
:1042500000E001400400FA05140000200090D003A3
:104260008C5600404881030000F00040E40E0040FE
:1042700058020010409602400649074A074B9B1A15
:1042800003DD043BC858D050FBDCFFF7FFFEFCF712
:1042900009F80000F458030000000020C0090020C5
:1042A000FEE7FEE7FEE7FEE7FEE7FEE7FEE7FEE7E6
:1042B000FEE7FEE719F0A2BE10B5002814BF0446C1
:1042C0000124204619F092FE40B900F0FBFD30B108
:1042D0008047204619F08AFE0028F6D010BD042041
:1042E00000F00CF8024B03600249034A00F06EFD37
:1042F00020030300300303008D43000038B500F1B4
:104300008005284619F072FE044638B12046002187
:1043100080221AF0FDFA04F1800038BD0B4AB5F591
:10432000007F116807D80B46D80706D50134042C46
:104330004FEA5303F8D10DF04BFF0123A34004488B
:104340001943116000EB4424E0E700BF1C19002072
:1043500020190020094B984203D303F500629042D4
:1043600002D3803819F04ABE0549C01A400A0B68CA
:104370000122824023EA02030B60704720190020CB
:104380001C190020004870473C03030010B5034B84
:104390000360044600F0D2FB204610BD200303005A
:1043A00010B5054B0360044600F0C8FB2046FFF73C
:1043B00081FF204610BD00BF200303001EB400F0A3
:1043C0008DF81EBC29F0E8FBF0B50278472A83B0CF
:1043D0000E461F461AD00023254C01932368204621
:1043E0009B68984780B1019B1B6801930225336845
:1043F000214630461C6901AA0123A04710B1019B48
:104400003B60284603B0F0BD0125F0E743784E2B12
:10441000E1D18378552BDED1C378432B19D0C378F3
:10442000432BD8D10379432BD5D143792B2BD2D130
:1044300083792B2BCFD1C379012BCCD804D050F862
:10444000204C58300190C9E750F8200C50F8784CB7
:10445000F8E70379462BE2D143794F2BDFD18379FB
:10446000522BDCD1C379002BD9D10193014CB5E794
:10447000D40303007C03030010B5044600F0F0FBF6
:104480002378472BA4F1200204D0836823BB8260E9
:10449000012010BD63784E2BF7D1A378552BF4D1B2
:1044A000E378432BF1D12379432BEED163792B2B86
:1044B000EBD1A3792B2BE8D1E379012BE5D854F884
:1044C000043C0133012B44F8043CE1D1836844F8F7
:1044D000083C8260012010BD0DF07AFE08B500F0A6
:1044E000BFFB836883B393F82020472A04D00022BF
:1044F000826003F1200008BD93F821204E2AF6D1F6
:1045000093F82220552AF2D193F82320432AEED1A2
:1045100093F82420432AEAD193F825202B2AE6D1C8
:1045200093F826202B2AE2D193F82720012ADED8FF
:10453000DA69013ADA61002ADBD19A6982600022E5
:104540009A6103F1200008BD0DF042FE30B4002551
:104550002A4610F8014B04F07F0393401D432306C5
:1045600002F10702F5D41F2A05D8630603D54FF0E0
:10457000FF3393401D430D6030BC7047F0B55028A9
:1045800085B0054645D00F4600F00F010C293ED8F6
:10459000DFE801F007293907173D3D3D3D1F1B07A7
:1045A0001700104650F8044B44B105F07001102973
:1045B00018BF3A4614442A0648BF24681C6005B058
:1045C000F0BD104650F8084BEEE7104630F9024BAC
:1045D000EAE7104603A901930092FFF7B7FF039C97
:1045E0009DE80C00E0E700242646104610F801EB99
:1045F0000EF07F01B1401EF0800F44EA010406F185
:104600000706F3D1D0E7104630F8024BCCE718F09C
:10461000E9FCD01C20F0030050F8044B1C6005B0EE
:10462000F0BD00BFFF2815D008B500F07003202BA7
:1046300012D00AD9402B14D0502B17D0302B07D1D1
:104640000846BDE8084029F0A5BC7BB1102B0DD071
:1046500018F0C8FC002070470846BDE8084029F063
:104660009DBC0846BDE8084029F084BC002008BD78
:10467000F8B50C4615460746002844D029F07AFCC8
:1046800028602678FF2E04F1010432D039463046E6
:10469000FFF7C8FF224601462B1D3046FFF76EFF8D
:1046A0000446601C23782B75FF2B29D0102300248F
:1046B0002B75224610F8011B01F07F039340090679
:1046C00044EA030402F10702F4D40444EC600378E2
:1046D0006B7500240130224610F8011B01F07F03A6
:1046E00093401C430B0602F10702F5D404442C61ED
:1046F000F8BD686023782B75FF2B04F10100D5D13C
:104700000023EB60E3E7BBE72DE9F04F00F0030384
:1047100093B00024012B0F461546069400F09E80AE
:104720000ED3022B0AD13846294629F00FFC002867
:1047300000F0AF80092013B0BDE8F08F18F052FCF4
:1047400000F0080000F0FF010028ECD112AB104689
:1047500043F82C7D0C2200930B4628F06BFE284674
:1047600029F00EFC4FF0010881460028DBD00CAB8D
:104770001A46494628460393FFF77AFF29468246A0
:104780009DF84400FFF74EFF0BAE00210E900B4644
:104790000F220096284628F025FE0B9B109A23F046
:1047A0000103924503F1FF343AD29DF845B0002150
:1047B0005846FFF737FF5246014609AB5846FFF708
:1047C000DDFE9DF845A0834600215046FFF72AFFF5
:1047D0005A4601460AAB5046FFF7D0FE9DF845A069
:1047E000834600215046FFF71DFF5A4601463346D7
:1047F0005046FFF7C3FE8246002001461AF801EB3F
:104800000EF07F038B401EF0800F40EA030001F1A1
:104810000701F3D1099A0C9B13449C4280F09080CD
:104820004FF0000A0126002418F0010F00F09180DB
:10483000022E3FF478AF0AAB0021284600930D22E8
:104840000B46069D28F0CEFD0A9B7D62BC62C7F830
:104850002C90C7F830A03B6206206CE700F00800FF
:1048600000F0FF04C8B112AB002143F82C7D0C22EC
:10487000009328460B4628F0DDFD284629F080FBF2
:1048800044F002045FFA84F8814600287FF46FAF99
:1048900049E7082013B0BDE8F08F0CAB00930393F9
:1048A0001046234621460D223E6A28F09BFD0C9BB4
:1048B0009E42D8D112AB0C2243F82C7D284600939F
:1048C0002146234628F0B6FDD7F830A0BB6AFA6A25
:1048D000BAF1000F42D01C4691460326002CC0F2CC
:1048E000CD8012AB002143F8287D0A46009328466C
:1048F0000B4628F09FFD12AA002142F8244D0B46DA
:1049000000922846012228F095FD0AAC00210B46B2
:1049100000940F22284628F065FD0A9B009403F0BE
:10492000010300214AEA030428460B460F220A9499
:1049300028F080FD022E69D0072013B0BDE8F08F6B
:104940000A9A13449C4213D3109B9A45FFF42DAF4F
:1049500066E718F0080F04D1012EBFD138460DF0DC
:104960007DFC012E00F0E180002CBADA0DF03EFC57
:104970000B9B002B3FF4D7AE0D9A03EB020A0028E5
:1049800000F0BA80109B01381844BAF1000F3FF4D0
:10499000CAAE002800F0B48018F00803059300F0B8
:1049A000B18047224E2355213A707B704322462323
:1049B000B970FA704F2152223B7100237971BA719C
:1049C000FB7100239B46049508A9FFF7BFFD09A9C9
:1049D0000446FFF7BBFD089B002B32D034DD9DF869
:1049E0004400FF286CD000F00702042A3FF6A6AE70
:1049F00001A151F822F000BF3D4A00003D470000F0
:104A0000374A00003D4A0000174A00003846FFF7C9
:104A100033FD07208FE6DB005B420F9A0E991A44A4
:104A20000AABFFF7ABFD0A9929B3EFB9099B002B3D
:104A300071D0E018C8E75B005B42EEE79B005B4289
:104A4000EBE74FF0010BF1E717B1059A002A39D0D7
:104A50005A1CC2EB82720F9951F82220002AE5D12C
:104A6000049D1C460326DFE63846002206ABFFF70E
:104A7000ABFC0028DAD0049D089BF2E7039A494674
:104A80002846FFF7F5FD29469DF84400FFF7CAFDCB
:104A9000A20082F00302D2430F990E908B5801EBD3
:104AA000020E33B17246002352F8041F013300296D
:104AB000FAD10422BB62F862C7F834E03A6310E727
:104AC0000023AAE703F1010CCCEB8C720F98069D32
:104AD00050F822100B9500EB82050029C0D0294424
:104AE000384600223346FFF76FFC00289ED155F868
:104AF000041F0029F3D1BEE7BAF1000F3FF413AE53
:104B0000022690E6FB79012B0CBF57F8203C07F1F9
:104B10005803069355E75A46049D002A3FF403AE16
:104B20001C46022680E60DF015FC0DF051FB00BF7F
:104B300003460846194618F0C9BA00BF704700BFBF
:104B4000704700BF00487047B0030300004870473B
:104B5000C003030010B50446FFF7ACFB204610BDB0
:104B600070B5036884B000249E6900941023154634
:104B7000029312688DF804406B460394B0479DF889
:104B8000043003F00603062B03BF009B2B600120BB
:104B9000204604B070BD00BF009890420CBF0620B4
:104BA0000120704710B5034B036004460DF05EFC16
:104BB000204610BD3004030010B5054B03600446C9
:104BC0000DF054FC2046FFF775FB204610BD00BFDA
:104BD0003004030038B515461C460DF04DFC20B1DD
:104BE000082206232560E260237138BD2DE9F041DB
:104BF00016461C4607460D460DF03EFC08B9032C30
:104C000001D9BDE8F0812B683946324628465B69F8
:104C1000BDE8F041184700BF70B582B01646069C4B
:104C200008998C4205460CD0284619460DF024FC04
:104C300020B1099A0123146016719371002002B00B
:104C400070BD079901930DF017FC019B0028EBD074
:104C5000099B5E71F2E700BF0048704720210020E9
:104C6000004870472021002010B5034B0360044624
:104C7000FFF798FF204610BD9004030010B5054BC8
:104C800003600446FFF78EFF2046FFF713FB204624
:104C900010BD00BF9004030070B582B00D46069CA5
:104CA0009442064609D0B06806680694346A2946DC
:104CB000A44602B0BDE870406047194601920093D7
:104CC0000DF0DAFB009B019A0028ECD0062002B020
:104CD00070BD00BF2DE9F04F81B00C4619461F464C
:104CE000914683460A9EDDF82CA0DDF830800D9DAC
:104CF0000DF0C2FB70B1002C2E6085F804901FDB14
:104D00003444A0450CBF06240124AC71002001B03E
:104D1000BDE8F08F464518D0DBF80800D0F800E079
:104D20000A96CDF82CA0CDF830800D952146DEF8FE
:104D30001C404A463B46A44601B0BDE8F04F6047E0
:104D40000234E3D10123AB71E0E7584651460DF040
:104D500093FB0028E0D085F80590D7E72DE9F041D6
:104D600007460E4615461C46FFF734FF08B1BDE85E
:104D7000F081B86807682346BC6931462A46A446D4
:104D8000BDE8F041604700BF012810B51AD8BFF355
:104D90005F8FA1F1280353E8002F013A43E8002078
:104DA0000028F8D1BFF35F8F5AB951F81C3C01F1CC
:104DB00058040BB1204698472046BDE81040FFF745
:104DC000C9BA10BD51F8140C0DF0EEF9F8B504464F
:104DD0000F461646FFF744FF436801252B44436006
:104DE00044F8787C44F8746C44F8805C0DF010FA58
:104DF00044F8700C0DF004FAA4F1580543222B235B
:104E00004FF0470C4FF04E0E0F4944F86C0C5527ED
:104E1000002604F858CC04F857EC44F8501C04F869
:104E2000552C04F8542C04F8533C04F8523C04F874
:104E3000567C04F8516C284628F09CFE28460DF05C
:104E400089FA0DF0C5F900BF894D000010B5FFF7D4
:104E500007FF42680368013242606BB193F820207B
:104E6000472A0BD00022026003F12004204628F0DC
:104E7000A5FE20460DF06EFA0DF0AAF993F8212058
:104E80004E2AEFD193F82220552AEBD193F8232014
:104E9000432AE7D193F82420432AE3D193F825202D
:104EA0002B2ADFD193F826202B2ADBD193F8272059
:104EB000012AD7D85A6952425A61D5E708B50DF090
:104EC00087F900BF024B1868BFF35F8F704700BFC0
:104ED0002C2100202DE9F04FDFF88883CF4DD8F842
:104EE0000020CF4FCF4B2F60002485B0D2F8089020
:104EF0006C60012205F11C00AC60EC602C616C61FF
:104F0000AC61DFF834B31A7017F05EFAD8F80030ED
:104F1000CBF800705B68C44ACBF804404FF0FF3117
:104F20000BF11C00CBF80840CBF80C40CBF810403C
:104F3000CBF81440CBF81840DFF82CA3BB4EC5F8D3
:104F4000209001932A6003926962029117F03CFA63
:104F5000D8F80030019ADFF814933760DB68CBF89B
:104F60002020AAF10407039A0299746006F11C003C
:104F7000B460F46034617461B461CBF80020CBF8A4
:104F80002410019309F1140B17F01EFA0299039AE9
:104F9000019B716250463260336200F04FFD29463A
:104FA00050467C6787F8784087F87940FC67C7F8F7
:104FB0008040C7F88440C7F88840C7F804B04AF872
:104FC000049C00F027FE9A4D284600F037FD994BCF
:104FD00045F8083CA5F1080403F1140200239649A2
:104FE000A2602846A36784F87C3084F87D30C4F83A
:104FF0008030C4F88430C4F88830C4F88C306360E2
:1050000000F008FE8D4D2E1F284600F017FD0023EE
:1050100028468649C6F804B0736786F8783086F863
:105020007930F367C6F88030C6F88430C6F8883027
:1050300045F8049C00F0EEFDDFF834A2AAF1040567
:10504000504600F0FBFC002350467849C5F804B0F8
:105050006B6785F8783085F87930EB67C5F8803074
:10506000C5F88430C5F888304AF8049C00F0D2FDB9
:105070003269D8F80030724D776742F400523261DD
:105080009E68704BA767002485E8180005F11C0096
:10509000AC60EC602C616C61AC6117F095F9D8F8EC
:1050A0000020DFF8B4912E624FF0FF335668019371
:1050B0006B62644B6449C9F8084089E8180009F13B
:1050C0001C00C9F80C40C9F81040C9F81440C9F8D0
:1050D00018402960029117F077F9D8F80020019B59
:1050E000DFF890A1DFF874B1D2F80C80C9F8243051
:1050F000544B564FC9F820600299CBF80840AAF1EA
:1051000004068BE818000BF11C00CBF80C40CBF820
:105110001040CBF81440CBF81840C9F8001017F035
:1051200053F90299CBF82080019BCBF80010504630
:1051300007F11408CBF8243000F080FC29465046D3
:105140007467B46786F87C40C6F88040C6F884402F
:10515000C6F88840C6F88C40C6F804804AF8047C3B
:1051600000F0B0FD3A4C204600F068FC394B44F8A2
:10517000083CA4F1080503F1140200233649AA6093
:105180002046AB67EB6785F88030C5F88430C5F8FA
:105190008830C5F88C30C5F890306B6000F092FD17
:1051A000DFF8D490A9F10404484600F047FC00233E
:1051B00048462A49C4F804806367A36784F87C30B2
:1051C000C4F88030C4F88430C4F88830C4F88C3017
:1051D00049F8047C00F076FDDFF8A0A0AAF10409EC
:1051E000504600F02BFC002350461C49C9F80480AF
:1051F000C9F87430C9F8783089F87C30C9F8803043
:10520000C9F88430C9F88830C9F88C304AF8047C71
:1052100000F058FD1249236932E000BF70260020DB
:10522000B805030018000020C80E0300C0230020AA
:105230007C24002014110300042500205C210020A0
:1052400098230020F8050300080F0300340503002D
:105250007C22002044110300302100204826002039
:1052600098260020D8040020EC2300200405030029
:10527000C0250020E8210020302500200C2300203C
:105280000A68AE67013243F40053002066670A6083
:10529000236105B0BDE8F08F1C4B7B601C4800F01B
:1052A00023FCFFF78BF81B4BC9F804301A4800F0B9
:1052B0001BFCFFF783F8174B6360184800F014FCE1
:1052C000FFF77CF8134BAB60154800F00DFCFFF7BF
:1052D00075F8104B7360134800F006FCFFF76EF88A
:1052E0000A4B6B60104800F0FFFBFFF767F8074BB5
:1052F00073600E4800F0F8FBFFF760F8034BA36003
:105300000B4800F0F1FBFFF759F800BFC806030097
:10531000EC230020D80603000C23002030250020B9
:105320007C220020E8210020C02500205C210020F4
:105330007C240020054A1368591C10B504461160EE
:105340000BB9FFF7C7FD204610BD00BF982600200F
:10535000114A1368591E022B10B50446116001D082
:10536000204610BD0D4800F0C3F80D4800F0C0F80D
:105370000C4800F0BDF80C4800F002F90B4800F0B2
:10538000FFF80B4800F0FCF8204610BD0CF0E2FFDF
:105390000DF026F8E4E700BF98260020E82300205F
:1053A00058210020BC250020E42100202C250020CD
:1053B000082300200846704710B50446044A054BF0
:1053C000226040F8043F00F08FFB204610BD00BF74
:1053D00004050300C806030038B50368064953F8FE
:1053E0000C2C064D85508418234643F8041F18469C
:1053F00000F07AFB204638BDC80603000405030010
:1054000010B50446054A064B226040F8043F00F000
:105410006BFB2046FEF74EFF204610BD040503003F
:10542000C806030038B50368084953F80C2C084D2A
:1054300085508418234643F8041F184600F054FB97
:105440002046FEF737FF204638BD00BFC8060300E0
:105450000405030010B50446044A054B226040F8D9
:10546000043F00F041FB204610BD00BF340503009F
:10547000D806030038B50368064953F80C2C064DCE
:1054800085508418234643F8041F184600F02CFB6F
:10549000204638BDD80603003405030010B5044685
:1054A000054A064B226040F8043F00F01DFB2046F1
:1054B000FEF700FF204610BD34050300D8060300A8
:1054C00038B50368084953F80C2C084D85508418EA
:1054D000234643F8041F184600F006FB2046FEF75B
:1054E000E9FE204638BD00BFD8060300340503009E
:1054F000036853F80C3C034410B50446986F20B180
:1055000003689B699847013001D0204610BD23688D
:1055100053F80C3C23441846596941F0010100F04E
:105520003BFB204610BD01290ED10CF013FF236870
:1055300053F80C3C1C446369226943F00103D20711
:10554000636115D5FFF782FC0CF004FF236853F864
:105550000C3C23445A69196942F001025A61CB0795
:1055600008D40CF03DFFD0E70CF03AFFFEF726FF21
:10557000FFF76CFCFFF76AFC0CF032FFFEF71EFF32
:10558000036853F80C3C034410B50446D86F20B1AF
:1055900003689B699847013001D0204610BD2368FD
:1055A00053F80C3C23441846596941F0010100F0BE
:1055B00049FB204610BD01290ED10CF0CBFE23681B
:1055C00053F80C3C1C446369226943F00103D20781
:1055D000636115D5FFF73AFC0CF0BCFE236853F865
:1055E0000C3C23445A69196942F001025A61CB0705
:1055F00008D40CF0F5FED0E70CF0F2FEFEF7DEFE6C
:10560000FFF724FCFFF722FC0CF0EAFEFEF7D6FEC3
:10561000704700BF704700BF30B44FF0FF344FF009
:10562000FF350022C0E900458260C26030BC70478F
:1056300082B0D0B50DF1100E8EE80C0000244FF0B2
:10564000FF364FF0FF37C0E900678460C460BDE8F3
:10565000D04002B0704700BF002070470020704764
:105660004FF0FF30704700BF4FF0FF30704700BF72
:105670004FF0FF30704700BF704700BF704700BF5A
:1056800030B44FF0FF344FF0FF350022C0E9004541
:105690008260C26030BC704782B0D0B50DF1100E90
:1056A0008EE80C0000244FF0FF364FF0FF37C0E9C2
:1056B00000678460C460BDE8D04002B0704700BF9E
:1056C00000207047002070474FF0FF30704700BF48
:1056D0004FF0FF30704700BF4FF0FF30704700BF02
:1056E00010B5044B044640F81C3B0AF0F3FF20467B
:1056F00010BD00BFB805030010B5044B044640F8C8
:105700001C3B0AF0E7FF204610BD00BFF805030070
:1057100010B5054B044640F81C3B0AF0DBFF204661
:10572000FEF7C8FD204610BDB805030010B5054BB7
:10573000044640F81C3B0AF0CDFF2046FEF7BAFDB8
:10574000204610BDF80503002DE9F843B2F100082A
:105750002FDD194F0646894600257269B469A31AE0
:105760009B10C5EB080E4946104608D13368D9F89E
:1057700000105B6BBB4212D12846BDE8F8839E4502
:105780007446A8BF1C4622461FF0B6FA7369A200F1
:1057900025441344A8457361EEDD9144E6E73046A5
:1057A0009847013009F10409E6D00135A845D4DC59
:1057B000E2E70025E0E700BFD95600002DE9F843F5
:1057C000B2F100082CDD174F0646894600257269A4
:1057D000B3699B1AC5EB08044946104608D13368E3
:1057E00099F800105B6BBB4210D12846BDE8F883E6
:1057F0009C42A8BF1C46224618F08CFF73692544C2
:105800002344A8457361F0DDA144E8E7304698479A
:10581000013009F10109E8D00135A845D7DCE4E7FA
:105820000025E2E77156000002680A49526A8A427E
:1058300002D14FF0FF30704710B504469047013059
:1058400004D0A36813F8010BA36010BD4FF0FF3024
:1058500010BD00BF6156000002680A49526A8A42C0
:1058600002D14FF0FF30704710B504469047013029
:1058700004D0A36853F8040BA36010BD4FF0FF30B1
:1058800010BD00BFC95600002DE9F047B2F1000A73
:105890003ADD1E4FDFF87880064689460025B2685B
:1058A000F3689B1AC5EB0A044846114609D13368D0
:1058B0009A6ABA4213D15B6A43451CD12846BDE8B7
:1058C000F0879C42A8BF1C46224618F023FFB3680D
:1058D00025442344AA45B360F0DDA144E7E7304600
:1058E0009047431CEAD00135AA4589F8000009F128
:1058F0000109D4DCE2E7304698470130DED0B368D6
:1059000013F8010BB360EEE70025D7E72958000034
:10591000615600002DE9F047B2F1000A3BDD1F4F50
:10592000DFF87C80054689460026A968EA68521A95
:10593000921009D12B689A6ABA4217D15B6A434523
:1059400020D13046BDE8F087C6EB0A049442A8BFD8
:105950001446224648461FF0CFF9AB68A200264401
:105960001344B245AB60ECDD9144E3E72846904731
:10597000431CE6D00136B245C9F8000009F104091C
:10598000D3DCDEE7284698470130DAD0AB6853F81D
:10599000040BAB60ECE70026D3E700BF59580000CA
:1059A000C95600008368C1688B42024603D213F8CF
:1059B000010B93607047036810B5996A0A4CA142C5
:1059C00006D15B6A09498B4205D14FF0FF3010BD0B
:1059D000BDE810400847044698470130F5D0A36859
:1059E00013F8010BA36010BD295800006156000098
:1059F0008368C1688B42024603D253F8040B93605C
:105A00007047036810B5996A0A4CA14206D15B6AD7
:105A100009498B4205D14FF0FF3010BDBDE8104061
:105A20000847044698470130F5D0A36853F8040BA3
:105A3000A36010BD59580000C95600000F4B10B5A7
:105A400004460360002343608360C36003614361D5
:105A50008361C361036200F1240104F16C022C3004
:105A600040F8083C40F8043C08309042F8D1082344
:105A7000A166636616F0A8FC204610BDA0060300D0
:105A800070B5846905460E4644B16368A268304625
:105A9000294698472468002CF7D170BD70BD0CF0E2
:105AA00059FC0CF09DFCF5E7013101D0FEF786FCB6
:105AB0000CF0E4FB38B50546806988B1C3685A1E0E
:105AC000C2606BB90468FEF7F5FB4CB1E3685A1E7F
:105AD000E2602BB920460468FEF7ECFB002CF5D100
